:0A0000000C9437000C9400000C94DF
:10000A0000000C9400000C9400000C9400000C9466
:10001A0000000C9400000C9400000C9400000C9456
:10002A0000000C9400000C9400000C9400000C9446
:10003A0000000C9400000C9400000C9400000C9436
:10004A0064000C9400000C9400003738392F3435C2
:10005A0036583132332D4F303D2B80C002006001BB
:10006A0064000000F894EE27ECBBF1E0FBBFEBBFA5
:10007A00E5BF8DE0A2E0BB27ED938A95E9F780E022
:10008A0094E0A0E6ED930197E9F7E6E6F0E08591C2
:10009A009591009761F0A591B59105901590BF01D2
:1000AA00F00105900D920197E1F7FB01F0CFEFE522
:1000BA00EDBFE4E0EEBFC0E6D1E00C94C2000A92C4
:1000CA001A92FA926A937A938A939A93AA93BA9310
:1000DA00EA93FA93EFB7EA930E946B01849B10E0CC
:1000EA00859B11E0869B12E0879B13E0889889988C
:1000FA008A988B98909A919A929A939A8C9A8D9AB6
:10010A008E9A8F9A9498959896989798839B03E0DD
:10011A00829B02E0819B01E0809B00E0E02FA4E546
:10012A00B0E0F0E00E946601AE0FBF1FE12FF0E0E1
:10013A00EA0FFB1FA49170D08F988E988D988C9897
:10014A008B9A8A9A899A889A979A969A959A949A59
:10015A0093989298919890980E9470012496E991A8
:10016A00EFBFF991E991B991A99199918991799101
:10017A006991F990199009901895E0E0EABBEBBBF8
:10018A00E7BBE8BBE4BBE5BBEFE0E1BBE0EFE2BB0A
:10019A00EBB7E062EBBFE0E0E5BFE4BFE0E2EABF55
:1001AA00A0E14ED07894FFCFFFCFAA93EBB3EF70C4
:1001BA00AE2FE881E07FEA2BEBBB8DE08A95F1F761
:1001CA00DA9A8DE08A95F1F7DA988DE08A95F1F757
:1001DA0060C0AA93A881E9DFE881E295E883A88153
:1001EA00E4DF85E88A95F1F754C0AA93E881F0E044
:1001FA00E05AFE4FE081A981AE0FEBDF59804880BB
:10020A0022960895A2E047D0ACE0E3DFA1E043D014
:10021A00E0E04E2E5E2E0895AA93A881AA3011F02E
:10022A00571440F0E0E0EA934394A42DDEDFA8815E
:10023A00AA3079F15394D89AA881CBDFD89829C0EB
:10024A00AA93EAB3E06FEABBD29AD09AD19ADA9823
:10025A00D898D9987880E881E058E0936201E881DB
:10026A00E054E0936301A4E1B0E00E945C0118D07D
:10027A0017D016D0A0E299DF88EC90E00197F1F749
:10028A00A8E2A7DFA4E0A5DFA5E8A3DFA6E0A1DF37
:10029A00B9DF219608959DDFA3E0B0E00C945C01DC
:1002AA00A0E383DF88EC90E00197F1F708951096B8
:1002BA0039F080ED97E00197F1F7A8951197C9F702
:1002CA000895EE0FFF1FEE0FFF1F08953A932A932A
:1002DA001A930A9308953B812A8119810881089506
:00000001FF
